{
  "address": "0x2a0a54368Bb6b0D8fa31568D092ffBDf350ab553",
  "abi": [
    {
      "inputs": [
        {
          "internalType": "address",
          "name": "_stampsRegistry",
          "type": "address"
        }
      ],
      "stateMutability": "nonpayable",
      "type": "constructor"
    },
    {
      "inputs": [],
      "name": "BzzApproveFailed",
      "type": "error"
    },
    {
      "inputs": [],
      "name": "BzzTransferFailed",
      "type": "error"
    },
    {
      "inputs": [],
      "name": "InsufficientNativeValue",
      "type": "error"
    },
    {
      "inputs": [],
      "name": "InvalidCallback",
      "type": "error"
    },
    {
      "inputs": [],
      "name": "InvalidPath",
      "type": "error"
    },
    {
      "inputs": [],
      "name": "NativeRefundFailed",
      "type": "error"
    },
    {
      "inputs": [],
      "name": "PoolNotFound",
      "type": "error"
    },
    {
      "inputs": [
        {
          "internalType": "uint256",
          "name": "required",
          "type": "uint256"
        },
        {
          "internalType": "uint256",
          "name": "maximum",
          "type": "uint256"
        }
      ],
      "name": "SlippageExceeded",
      "type": "error"
    },
    {
      "anonymous": false,
      "inputs": [
        {
          "indexed": true,
          "internalType": "bytes32",
          "name": "batchId",
          "type": "bytes32"
        },
        {
          "indexed": true,
          "internalType": "address",
          "name": "owner",
          "type": "address"
        },
        {
          "indexed": false,
          "internalType": "address",
          "name": "tokenIn",
          "type": "address"
        },
        {
          "indexed": false,
          "internalType": "uint256",
          "name": "amountIn",
          "type": "uint256"
        },
        {
          "indexed": false,
          "internalType": "uint256",
          "name": "bzzAmount",
          "type": "uint256"
        }
      ],
      "name": "BatchCreatedViaSwap",
      "type": "event"
    },
    {
      "anonymous": false,
      "inputs": [
        {
          "indexed": true,
          "internalType": "bytes32",
          "name": "batchId",
          "type": "bytes32"
        },
        {
          "indexed": false,
          "internalType": "address",
          "name": "tokenIn",
          "type": "address"
        },
        {
          "indexed": false,
          "internalType": "uint256",
          "name": "amountIn",
          "type": "uint256"
        },
        {
          "indexed": false,
          "internalType": "uint256",
          "name": "bzzAmount",
          "type": "uint256"
        }
      ],
      "name": "BatchToppedUpViaSwap",
      "type": "event"
    },
    {
      "inputs": [],
      "name": "BZZ",
      "outputs": [
        {
          "internalType": "address",
          "name": "",
          "type": "address"
        }
      ],
      "stateMutability": "view",
      "type": "function"
    },
    {
      "inputs": [],
      "name": "SUSHI_FACTORY",
      "outputs": [
        {
          "internalType": "address",
          "name": "",
          "type": "address"
        }
      ],
      "stateMutability": "view",
      "type": "function"
    },
    {
      "inputs": [],
      "name": "SUSHI_QUOTER",
      "outputs": [
        {
          "internalType": "address",
          "name": "",
          "type": "address"
        }
      ],
      "stateMutability": "view",
      "type": "function"
    },
    {
      "inputs": [],
      "name": "WXDAI",
      "outputs": [
        {
          "internalType": "address",
          "name": "",
          "type": "address"
        }
      ],
      "stateMutability": "view",
      "type": "function"
    },
    {
      "inputs": [
        {
          "internalType": "bytes",
          "name": "path",
          "type": "bytes"
        },
        {
          "internalType": "uint256",
          "name": "maxAmountIn",
          "type": "uint256"
        },
        {
          "internalType": "uint256",
          "name": "bzzAmountOut",
          "type": "uint256"
        },
        {
          "components": [
            {
              "internalType": "address",
              "name": "owner",
              "type": "address"
            },
            {
              "internalType": "address",
              "name": "nodeAddress",
              "type": "address"
            },
            {
              "internalType": "uint256",
              "name": "initialBalancePerChunk",
              "type": "uint256"
            },
            {
              "internalType": "uint8",
              "name": "depth",
              "type": "uint8"
            },
            {
              "internalType": "uint8",
              "name": "bucketDepth",
              "type": "uint8"
            },
            {
              "internalType": "bytes32",
              "name": "nonce",
              "type": "bytes32"
            },
            {
              "internalType": "bool",
              "name": "immutable_",
              "type": "bool"
            }
          ],
          "internalType": "struct SushiSwapStampsRouter.CreateBatchParams",
          "name": "p",
          "type": "tuple"
        }
      ],
      "name": "createBatch",
      "outputs": [],
      "stateMutability": "nonpayable",
      "type": "function"
    },
    {
      "inputs": [
        {
          "internalType": "bytes",
          "name": "path",
          "type": "bytes"
        },
        {
          "internalType": "uint256",
          "name": "maxAmountIn",
          "type": "uint256"
        },
        {
          "internalType": "uint256",
          "name": "bzzAmountOut",
          "type": "uint256"
        },
        {
          "components": [
            {
              "internalType": "address",
              "name": "owner",
              "type": "address"
            },
            {
              "internalType": "address",
              "name": "nodeAddress",
              "type": "address"
            },
            {
              "internalType": "uint256",
              "name": "initialBalancePerChunk",
              "type": "uint256"
            },
            {
              "internalType": "uint8",
              "name": "depth",
              "type": "uint8"
            },
            {
              "internalType": "uint8",
              "name": "bucketDepth",
              "type": "uint8"
            },
            {
              "internalType": "bytes32",
              "name": "nonce",
              "type": "bytes32"
            },
            {
              "internalType": "bool",
              "name": "immutable_",
              "type": "bool"
            }
          ],
          "internalType": "struct SushiSwapStampsRouter.CreateBatchParams",
          "name": "p",
          "type": "tuple"
        }
      ],
      "name": "createBatchNative",
      "outputs": [],
      "stateMutability": "payable",
      "type": "function"
    },
    {
      "inputs": [
        {
          "internalType": "bytes",
          "name": "path",
          "type": "bytes"
        },
        {
          "internalType": "uint256",
          "name": "bzzAmountOut",
          "type": "uint256"
        }
      ],
      "name": "quoteMultiHop",
      "outputs": [
        {
          "internalType": "uint256",
          "name": "amountIn",
          "type": "uint256"
        }
      ],
      "stateMutability": "nonpayable",
      "type": "function"
    },
    {
      "inputs": [
        {
          "internalType": "address",
          "name": "tokenIn",
          "type": "address"
        },
        {
          "internalType": "uint24",
          "name": "fee",
          "type": "uint24"
        },
        {
          "internalType": "uint256",
          "name": "bzzAmountOut",
          "type": "uint256"
        }
      ],
      "name": "quoteSingleHop",
      "outputs": [
        {
          "internalType": "uint256",
          "name": "amountIn",
          "type": "uint256"
        }
      ],
      "stateMutability": "nonpayable",
      "type": "function"
    },
    {
      "inputs": [],
      "name": "stampsRegistry",
      "outputs": [
        {
          "internalType": "contract IStampsRegistry",
          "name": "",
          "type": "address"
        }
      ],
      "stateMutability": "view",
      "type": "function"
    },
    {
      "inputs": [
        {
          "internalType": "bytes",
          "name": "path",
          "type": "bytes"
        },
        {
          "internalType": "uint256",
          "name": "maxAmountIn",
          "type": "uint256"
        },
        {
          "internalType": "uint256",
          "name": "bzzAmountOut",
          "type": "uint256"
        },
        {
          "internalType": "bytes32",
          "name": "batchId",
          "type": "bytes32"
        },
        {
          "internalType": "uint256",
          "name": "topupAmountPerChunk",
          "type": "uint256"
        }
      ],
      "name": "topUp",
      "outputs": [],
      "stateMutability": "nonpayable",
      "type": "function"
    },
    {
      "inputs": [
        {
          "internalType": "bytes",
          "name": "path",
          "type": "bytes"
        },
        {
          "internalType": "uint256",
          "name": "maxAmountIn",
          "type": "uint256"
        },
        {
          "internalType": "uint256",
          "name": "bzzAmountOut",
          "type": "uint256"
        },
        {
          "internalType": "bytes32",
          "name": "batchId",
          "type": "bytes32"
        },
        {
          "internalType": "uint256",
          "name": "topupAmountPerChunk",
          "type": "uint256"
        }
      ],
      "name": "topUpNative",
      "outputs": [],
      "stateMutability": "payable",
      "type": "function"
    },
    {
      "inputs": [
        {
          "internalType": "int256",
          "name": "amount0Delta",
          "type": "int256"
        },
        {
          "internalType": "int256",
          "name": "amount1Delta",
          "type": "int256"
        },
        {
          "internalType": "bytes",
          "name": "data",
          "type": "bytes"
        }
      ],
      "name": "uniswapV3SwapCallback",
      "outputs": [],
      "stateMutability": "nonpayable",
      "type": "function"
    },
    {
      "stateMutability": "payable",
      "type": "receive"
    }
  ],
  "transactionHash": "0x1e89af5249b93f7491b74e4e7c88398c21738fc2abced8adf39f501def851115",
  "args": [
    "0x5EBfBeFB1E88391eFb022d5d33302f50a46bF4f3"
  ],
  "numDeployments": 1,
  "solcInputHash": "90fe721cd304da2d010b5da7732aee0a",
  "bytecode": "0x60a03461007a57601f6118d738819003918201601f19168301916001600160401b0383118484101761007f5780849260209460405283398101031261007a57516001600160a01b0381169081900361007a57608052604051611841908161009682396080518181816105de0152818161137d01526115d00152f35b600080fd5b634e487b7160e01b600052604160045260246000fdfe6080604052600436101561001b575b361561001957600080fd5b005b60003560e01c80630e70205d146100db5780630f43a7df146100d65780632a426602146100d15780632cb1dd93146100cc578063348fdcc4146100c7578063604a52fb146100c25780638acc27b9146100bd578063a7c086be146100b8578063b753bb47146100b3578063b972d70d146100ae578063eaa4f401146100a95763fa461e330361000e576107d6565b6107a7565b6106db565b6106ac565b61060d565b6105c8565b610599565b6104b1565b610390565b610237565b61018a565b6100f0565b60009103126100eb57565b600080fd5b346100eb5760003660031901126100eb57602060405173dbf3ea6f5bee45c02255b2c26a16f300502f68da8152f35b9181601f840112156100eb578235916001600160401b0383116100eb57602083818601950101116100eb57565b60a06003198201126100eb57600435906001600160401b0382116100eb576101769160040161011f565b909160243590604435906064359060843590565b346100eb576101ec7fc65f0fa5466fb164f60e47c03216e4cae4cf47cb57de7d15f9cbdd413028ace66101f36101f86102216101c53661014c565b91839894926101e682809a98969d949d336101e136898b610d4c565b61118c565b8b611366565b3691610d4c565b611466565b604080516001600160a01b03909216825260208201949094529283019190915281906060820190565b0390a2005b6001600160a01b038116036100eb57565b346100eb5760603660031901126100eb5760043561025481610226565b60243562ffffff811681036100eb57610317916102b5608092610287610278610d03565b6001600160a01b039094168452565b73dbf3ea6f5bee45c02255b2c26a16f300502f68da6020840152604435604084015262ffffff166060830152565b60008183015260408051635e90b82560e11b815282516001600160a01b039081166004830152602084015181166024830152918301516044820152606083015162ffffff166064820152608090920151166084820152918290819060a4820190565b0381600073b1e835dc2785b52265711e17fccb0fd018226a6e5af1801561038b5761035591600091610359575b506040519081529081906020820190565b0390f35b61037b915060803d608011610384575b6103738183610ce2565b810190610d94565b50505038610344565b503d610369565b610dc6565b6103993661014c565b90949383929334106104585773e91d153e0b41518a2ce8dd3d7944fa863463a97d91823b156100eb5760008493600460405180968193630d0e30db60e41b83525af1801561038b57858581946101e17fc65f0fa5466fb164f60e47c03216e4cae4cf47cb57de7d15f9cbdd413028ace69a6104279861042196610449575b5030923691610d4c565b86611366565b60408051600081526020810192909252810191909152606090a26100196114bd565b61045290610caf565b38610417565b604051631ac4c73760e11b8152600490fd5b6101406003198201126100eb576004356001600160401b0381116100eb57816104959160040161011f565b929092916024359160e06044359260631901126100eb57606490565b6104ba3661046a565b9291938434106104585773e91d153e0b41518a2ce8dd3d7944fa863463a97d90813b156100eb5760008692600460405180958193630d0e30db60e41b83525af191821561038b577f1ec8178b486abb6332d45b8822f76f29e264fc077dc6ae1d5db41f9a1f2be645946101e18593899361053c96610586575030923691610d4c565b61054f8161054a3686610df5565b6115b9565b926001600160a01b039061056290610e86565b604080516000815260208101979097528601929092521692606090a36100196114bd565b8061059361045292610caf565b806100e0565b346100eb5760003660031901126100eb57602060405173e91d153e0b41518a2ce8dd3d7944fa863463a97d8152f35b346100eb5760003660031901126100eb576040517f00000000000000000000000000000000000000000000000000000000000000006001600160a01b03168152602090f35b346100eb576106a76106737f1ec8178b486abb6332d45b8822f76f29e264fc077dc6ae1d5db41f9a1f2be6456101f36106453661046a565b9792969194909361065d8587336101e1368d87610d4c565b61066b8561054a368c610df5565b973691610d4c565b95359161067f83610226565b604080516001600160a01b039889168152602081019590955284015294169381906060820190565b0390a3005b346100eb5760003660031901126100eb57602060405173f78031cbca409f2fb6876bdfdbc1b2df24cf9bef8152f35b346100eb5760403660031901126100eb576004356001600160401b0381116100eb57600061070f606492369060040161011f565b9283916040519485938492632f80bb1d60e01b84526040600485015281604485015284840137848382840101526024356024830152601f801991011681010301818373b1e835dc2785b52265711e17fccb0fd018226a6e5af1801561038b576103559160009161078a57506040519081529081906020820190565b61037b91503d806000833e61079f8183610ce2565b810190610f13565b346100eb5760003660031901126100eb57602060405173b1e835dc2785b52265711e17fccb0fd018226a6e8152f35b346100eb5760603660031901126100eb576004803590602435604435916001600160401b0383116100eb5761081161089f933690830161011f565b92909461083760009687831395868015610c90575b61082f90610fb9565b810190610ff3565b926108598451602081015160601c916037603483015160e81c92015160601c90565b909691946040978851998a91630b4c774160e11b9485845260209988850191939262ffffff90604092606085019660018060a01b03809216865216602085015216910152565b0392868a73f78031cbca409f2fb6876bdfdbc1b2df24cf9bef9581875afa998a1561038b578b9a610c71575b506001600160a01b03998a163303610c615715610c1a57508651630dfe168160e01b815285818581335afa90811561038b578a91610bfd575b505b865151602b1015610ace57508697869786610925610982989951611781565b9461094686602081015160601c916037603483015160e81c92015160601c90565b94519687526001600160a01b038083168a8901908152908616602082015262ffffff909116604082015290999395938492918391829160600190565b03915afa801561038b5782918c91610aa1575b5016958615610a915792610a1c6109bc8b999897969484610a38958f9816911610966110af565b978615610a76576401000276a49a5b81810151908b0151906109fb906001600160a01b03166109e9610d22565b9586526001600160a01b031683860152565b8a840152610a0e8a519384928301611105565b03601f198101835282610ce2565b8751630251596160e31b81529889978896879533908701611153565b03925af1801561038b57610a4b57505080f35b81610a6a92903d10610a6f575b610a628183610ce2565b81019061113d565b505080f35b503d610a58565b73fffd8963efd1fc6a506488495d951d5263988d259a6109cb565b89516301dbb3ff60e61b81528590fd5b610ac19150893d8b11610ac7575b610ab98183610ce2565b81019061106f565b38610995565b503d610aaf565b93929794958092508791500151808311610bd9575084015184929190879089906001600160a01b03168087163003610b815750875163a9059cbb60e01b8152338a820190815260208101949094529586949385935083906040010393165af191821561038b578592610b54575b505015610b4757505080f35b516304aa965560e41b8152fd5b610b739250803d10610b7a575b610b6b8183610ce2565b810190611084565b3880610b3b565b503d610b61565b88516323b872dd60e01b81526001600160a01b0390911692810192835233602084015260408301939093529194859392849290919083906060010393165af191821561038b578592610b5457505015610b4757505080f35b86516371c4efed60e01b815280890184815260208101929092529081906040010390fd5b610c149150863d8811610ac757610ab98183610ce2565b38610904565b875163d21220a760e01b815290945085818581335afa90811561038b578a91610c44575b50610906565b610c5b9150863d8811610ac757610ab98183610ce2565b38610c3e565b885163f7a632f560e01b81528590fd5b610c89919a50873d8911610ac757610ab98183610ce2565b98386108cb565b50888513610826565b634e487b7160e01b600052604160045260246000fd5b6001600160401b038111610cc257604052565b610c99565b606081019081106001600160401b03821117610cc257604052565b90601f801991011681019081106001600160401b03821117610cc257604052565b6040519060a082018281106001600160401b03821117610cc257604052565b60405190610d2f82610cc7565b565b6001600160401b038111610cc257601f01601f191660200190565b929192610d5882610d31565b91610d666040519384610ce2565b8294818452818301116100eb578281602093846000960137010152565b519063ffffffff821682036100eb57565b91908260809103126100eb578151916020810151610db181610226565b916060610dc060408401610d83565b92015190565b6040513d6000823e3d90fd5b359060ff821682036100eb57565b801515036100eb57565b3590610d2f82610de0565b91908260e09103126100eb5760405160e081018181106001600160401b03821117610cc25760405260c0610e818183958035610e3081610226565b85526020810135610e4081610226565b602086015260408101356040860152610e5b60608201610dd2565b6060860152610e6c60808201610dd2565b608086015260a081013560a086015201610dea565b910152565b35610e9081610226565b90565b6001600160401b038111610cc25760051b60200190565b9080601f830112156100eb57815190602091610ec581610e93565b93610ed36040519586610ce2565b81855260208086019260051b8201019283116100eb57602001905b828210610efc575050505090565b838091610f0884610d83565b815201910190610eee565b6080818303126100eb5780519260209283830151936001600160401b03948581116100eb5784019082601f830112156100eb57815191610f5283610e93565b92610f606040519485610ce2565b808452828085019160051b830101918583116100eb578301905b828210610fa057505050509360408401519081116100eb57606091610dc0918501610eaa565b8380918351610fae81610226565b815201910190610f7a565b15610fc057565b60405162461bcd60e51b815260206004820152600b60248201526a5a65726f2064656c74617360a81b6044820152606490fd5b906020828203126100eb5781356001600160401b03928382116100eb57016060818303126100eb576040519261102884610cc7565b81359081116100eb57810182601f820112156100eb5760409281602061105093359101610d4c565b8352602081013561106081610226565b60208401520135604082015290565b908160209103126100eb5751610e9081610226565b908160209103126100eb5751610e9081610de0565b634e487b7160e01b600052601160045260246000fd5b600160ff1b81146110c05760000390565b611099565b919082519283825260005b8481106110f1575050826000602080949584010152601f8019910116010190565b6020818301810151848301820152016110d0565b6020815260606040611122845183602086015260808501906110c5565b60208501516001600160a01b03168483015293015191015290565b91908260409103126100eb576020825192015190565b6001600160a01b039182168152911515602083015260408201929092529116606082015260a060808201819052610e90929101906110c5565b929091602b845110611354576111b884602081015160601c916037603483015160e81c92015160601c90565b9195919391906001600160a01b038088169173dbf3ea6f5bee45c02255b2c26a16f300502f68d91983016113545760408051630b4c774160e11b81526001600160a01b039a8b16600482015299881660248b015262ffffff9190911660448a01529760208160648173f78031cbca409f2fb6876bdfdbc1b2df24cf9bef5afa801561038b578291600091611335575b5016958615611324576112ac97959361126c6000948b9997946112ba941610936110af565b948385146113065761129a6401000276a4985b611287610d22565b9384526001600160a01b03166020840152565b88820152875198899160208301611105565b03601f198101895288610ce2565b6112da865197889687958694630251596160e31b86523060048701611153565b03925af1801561038b576112ec575050565b8161130292903d10610a6f57610a628183610ce2565b5050565b61129a73fffd8963efd1fc6a506488495d951d5263988d259861127f565b88516301dbb3ff60e61b8152600490fd5b61134e915060203d602011610ac757610ab98183610ce2565b38611247565b6040516320db826760e01b8152600490fd5b60405163095ea7b360e01b81526001600160a01b037f000000000000000000000000000000000000000000000000000000000000000016600482018190526024820194909452909392600092916020816044818773dbf3ea6f5bee45c02255b2c26a16f300502f68da5af190811561038b578491611447575b501561143557803b1561143157604051631549361960e01b8152600481019590955260248501919091529192918290604490829084905af1801561038b576114245750565b80610593610d2f92610caf565b8280fd5b604051632546bed360e01b8152600490fd5b611460915060203d602011610b7a57610b6b8183610ce2565b386113df565b8051806013198101116110c05701600c015160601c90565b908160209103126100eb575190565b3d156114b8573d9061149e82610d31565b916114ac6040519384610ce2565b82523d6000602084013e565b606090565b6040516370a0823160e01b815230600482015273e91d153e0b41518a2ce8dd3d7944fa863463a97d602082602481845afa91821561038b57600092611588575b508161153a575b5050478061150f5750565b600080808093335af161152061148d565b501561152857565b6040516308520d7160e41b8152600490fd5b803b156100eb57604051632e1a7d4d60e01b815260048101929092526000908290602490829084905af1801561038b57611575575b80611504565b8061059361158292610caf565b3861156f565b6115ab91925060203d6020116115b2575b6115a38183610ce2565b81019061147e565b90386114fd565b503d611599565b60405163095ea7b360e01b81526001600160a01b037f000000000000000000000000000000000000000000000000000000000000000016600482018190526024820193909352600091906020816044818673dbf3ea6f5bee45c02255b2c26a16f300502f68da5af190811561038b57839161173b575b50156114355780516001600160a01b031660208201519092906001600160a01b0316604083015193611665606085015160ff1690565b608085015160ff169460a081019561168260c08851930151151590565b92893b15611737576040516317f8c86b60e11b81526001600160a01b039586166004820152959094166024860152604485019790975260ff928316606485015291909516608483015260a482015292151560c48401528260e48183875af190811561038b57610a0e9261171e92611724575b5051604080516001600160a01b039095166020860190815290850191909152929182906060820190565b51902090565b8061059361173192610caf565b386116f4565b8680fd5b611754915060203d602011610b7a57610b6b8183610ce2565b3861162f565b90815181101561176b570160200190565b634e487b7160e01b600052603260045260246000fd5b8051601619810192919083116110c05761179a83610d31565b926117a86040519485610ce2565b808452601f196117b782610d31565b013660208601378360009260005b8381106117d3575050505050565b60178101908181116110c0576001916001600160f81b0319906117f6908561175a565b5116861a611804828661175a565b53016117c556fea2646970667358221220c1bcb94f145b5031b5241b079ab267fc10582dc6d84e331e4ed3116a4e43b44b64736f6c63430008170033",
  "devdoc": {
    "kind": "dev",
    "methods": {
      "createBatch(bytes,uint256,uint256,(address,address,uint256,uint8,uint8,bytes32,bool))": {
        "details": "`tokenIn` must be pre-approved to this contract for at least `maxAmountIn`.",
        "params": {
          "bzzAmountOut": "Exact BZZ needed  (= swarmBatchTotal = initialBalancePerChunk × 2^depth)",
          "maxAmountIn": "Maximum tokenIn to spend (slippage protection)",
          "p": "Batch creation parameters",
          "path": "Exact-output path: BZZ ++ fee ++ [mid ++ fee]* ++ tokenIn"
        }
      },
      "createBatchNative(bytes,uint256,uint256,(address,address,uint256,uint8,uint8,bytes32,bool))": {
        "details": "Send msg.value ≥ maxAmountIn. Excess xDAI is refunded.",
        "params": {
          "bzzAmountOut": "Exact BZZ needed",
          "maxAmountIn": "Maximum xDAI to spend",
          "p": "Batch creation parameters",
          "path": "Exact-output path where the final token MUST be WXDAI:                     BZZ ++ fee ++ [mid ++ fee]* ++ WXDAI"
        }
      },
      "quoteMultiHop(bytes,uint256)": {
        "params": {
          "bzzAmountOut": "Exact BZZ amount wanted",
          "path": "Exact-output encoded path: BZZ ++ fee ++ [mid ++ fee]* ++ tokenIn"
        },
        "returns": {
          "amountIn": " Input tokens required (before slippage)"
        }
      },
      "quoteSingleHop(address,uint24,uint256)": {
        "params": {
          "bzzAmountOut": "Exact BZZ amount wanted",
          "fee": "Pool fee tier (e.g. 500, 3000, 10000)",
          "tokenIn": "Input token (use WXDAI for native xDAI quotes)"
        },
        "returns": {
          "amountIn": " Input tokens required (before slippage)"
        }
      },
      "topUp(bytes,uint256,uint256,bytes32,uint256)": {
        "details": "`tokenIn` must be pre-approved to this contract for at least `maxAmountIn`.",
        "params": {
          "batchId": "Batch to top up",
          "bzzAmountOut": "Exact BZZ needed (= topupAmountPerChunk × 2^depth)",
          "maxAmountIn": "Maximum tokenIn to spend",
          "path": "Exact-output path: BZZ ++ fee ++ [mid ++ fee]* ++ tokenIn",
          "topupAmountPerChunk": "Per-chunk top-up amount (matches registry call)"
        }
      },
      "topUpNative(bytes,uint256,uint256,bytes32,uint256)": {
        "details": "Send msg.value ≥ maxAmountIn. Excess xDAI is refunded.",
        "params": {
          "batchId": "Batch to top up",
          "bzzAmountOut": "Exact BZZ needed",
          "maxAmountIn": "Maximum xDAI to spend",
          "path": "BZZ ++ fee ++ [mid ++ fee]* ++ WXDAI",
          "topupAmountPerChunk": "Per-chunk top-up amount"
        }
      },
      "uniswapV3SwapCallback(int256,int256,bytes)": {
        "details": "Implements the Uniswap V3 callback interface (SushiSwap V3 is compatible).         For multi-hop swaps, this callback chains into the next pool swap before         paying the current pool, routing tokens directly between pools."
      }
    },
    "version": 1
  },
  "userdoc": {
    "kind": "user",
    "methods": {
      "BZZ()": {
        "notice": "BZZ token on Gnosis"
      },
      "SUSHI_FACTORY()": {
        "notice": "SushiSwap V3 Factory on Gnosis"
      },
      "SUSHI_QUOTER()": {
        "notice": "SushiSwap V3 QuoterV2 on Gnosis"
      },
      "WXDAI()": {
        "notice": "Wrapped xDAI on Gnosis"
      },
      "createBatch(bytes,uint256,uint256,(address,address,uint256,uint8,uint8,bytes32,bool))": {
        "notice": "Swap `tokenIn` → BZZ via the given path and create a Swarm stamp batch."
      },
      "createBatchNative(bytes,uint256,uint256,(address,address,uint256,uint8,uint8,bytes32,bool))": {
        "notice": "Swap native xDAI → BZZ and create a Swarm stamp batch."
      },
      "quoteMultiHop(bytes,uint256)": {
        "notice": "Quote: how many input tokens are needed to get exactly `bzzAmountOut` BZZ         via a multi-hop path."
      },
      "quoteSingleHop(address,uint24,uint256)": {
        "notice": "Quote: how many `tokenIn` are needed to get exactly `bzzAmountOut` BZZ         via a single-hop pool."
      },
      "topUp(bytes,uint256,uint256,bytes32,uint256)": {
        "notice": "Swap `tokenIn` → BZZ and top up an existing Swarm stamp batch."
      },
      "topUpNative(bytes,uint256,uint256,bytes32,uint256)": {
        "notice": "Swap native xDAI → BZZ and top up an existing Swarm stamp batch."
      },
      "uniswapV3SwapCallback(int256,int256,bytes)": {
        "notice": "Called by a SushiSwap V3 pool during swap execution."
      }
    },
    "version": 1
  },
  "storageLayout": {
    "storage": [],
    "types": null
  }
}