{
  "address": "0x267260bC01d35D4E7bbeb5630E3eB9900884be7c",
  "abi": [
    {
      "inputs": [
        {
          "internalType": "address",
          "name": "_sushiRouter",
          "type": "address"
        },
        {
          "internalType": "address",
          "name": "_batchRegistry",
          "type": "address"
        },
        {
          "internalType": "address",
          "name": "_bzzToken",
          "type": "address"
        },
        {
          "internalType": "address",
          "name": "_defaultInputToken",
          "type": "address"
        },
        {
          "internalType": "address",
          "name": "_defaultPool",
          "type": "address"
        },
        {
          "internalType": "address",
          "name": "_wxdaiToken",
          "type": "address"
        }
      ],
      "stateMutability": "nonpayable",
      "type": "constructor"
    },
    {
      "inputs": [
        {
          "internalType": "address",
          "name": "owner",
          "type": "address"
        }
      ],
      "name": "OwnableInvalidOwner",
      "type": "error"
    },
    {
      "inputs": [
        {
          "internalType": "address",
          "name": "account",
          "type": "address"
        }
      ],
      "name": "OwnableUnauthorizedAccount",
      "type": "error"
    },
    {
      "inputs": [],
      "name": "ReentrancyGuardReentrantCall",
      "type": "error"
    },
    {
      "inputs": [
        {
          "internalType": "address",
          "name": "token",
          "type": "address"
        }
      ],
      "name": "SafeERC20FailedOperation",
      "type": "error"
    },
    {
      "anonymous": false,
      "inputs": [
        {
          "indexed": false,
          "internalType": "address",
          "name": "sushiRouter",
          "type": "address"
        },
        {
          "indexed": false,
          "internalType": "address",
          "name": "batchRegistry",
          "type": "address"
        },
        {
          "indexed": false,
          "internalType": "address",
          "name": "bzzToken",
          "type": "address"
        },
        {
          "indexed": false,
          "internalType": "address",
          "name": "defaultInputToken",
          "type": "address"
        },
        {
          "indexed": false,
          "internalType": "address",
          "name": "defaultPool",
          "type": "address"
        },
        {
          "indexed": false,
          "internalType": "address",
          "name": "wxdaiToken",
          "type": "address"
        }
      ],
      "name": "ConfigUpdated",
      "type": "event"
    },
    {
      "anonymous": false,
      "inputs": [
        {
          "indexed": true,
          "internalType": "address",
          "name": "previousOwner",
          "type": "address"
        },
        {
          "indexed": true,
          "internalType": "address",
          "name": "newOwner",
          "type": "address"
        }
      ],
      "name": "OwnershipTransferred",
      "type": "event"
    },
    {
      "anonymous": false,
      "inputs": [
        {
          "indexed": true,
          "internalType": "address",
          "name": "user",
          "type": "address"
        },
        {
          "indexed": false,
          "internalType": "address",
          "name": "inputToken",
          "type": "address"
        },
        {
          "indexed": false,
          "internalType": "uint256",
          "name": "inputAmount",
          "type": "uint256"
        },
        {
          "indexed": false,
          "internalType": "uint256",
          "name": "bzzReceived",
          "type": "uint256"
        },
        {
          "indexed": false,
          "internalType": "uint256",
          "name": "bzzUsed",
          "type": "uint256"
        },
        {
          "indexed": false,
          "internalType": "uint256",
          "name": "bzzReturned",
          "type": "uint256"
        },
        {
          "indexed": true,
          "internalType": "bytes32",
          "name": "batchId",
          "type": "bytes32"
        }
      ],
      "name": "SwapAndCreateBatch",
      "type": "event"
    },
    {
      "anonymous": false,
      "inputs": [
        {
          "indexed": true,
          "internalType": "address",
          "name": "user",
          "type": "address"
        },
        {
          "indexed": false,
          "internalType": "address",
          "name": "inputToken",
          "type": "address"
        },
        {
          "indexed": false,
          "internalType": "uint256",
          "name": "inputAmount",
          "type": "uint256"
        },
        {
          "indexed": false,
          "internalType": "uint256",
          "name": "bzzReceived",
          "type": "uint256"
        },
        {
          "indexed": false,
          "internalType": "uint256",
          "name": "bzzUsed",
          "type": "uint256"
        },
        {
          "indexed": false,
          "internalType": "uint256",
          "name": "bzzReturned",
          "type": "uint256"
        },
        {
          "indexed": true,
          "internalType": "bytes32",
          "name": "batchId",
          "type": "bytes32"
        }
      ],
      "name": "SwapAndTopUpBatch",
      "type": "event"
    },
    {
      "inputs": [],
      "name": "batchRegistry",
      "outputs": [
        {
          "internalType": "contract IBatchRegistry",
          "name": "",
          "type": "address"
        }
      ],
      "stateMutability": "view",
      "type": "function"
    },
    {
      "inputs": [],
      "name": "bzzToken",
      "outputs": [
        {
          "internalType": "address",
          "name": "",
          "type": "address"
        }
      ],
      "stateMutability": "view",
      "type": "function"
    },
    {
      "inputs": [],
      "name": "defaultInputToken",
      "outputs": [
        {
          "internalType": "address",
          "name": "",
          "type": "address"
        }
      ],
      "stateMutability": "view",
      "type": "function"
    },
    {
      "inputs": [],
      "name": "defaultPool",
      "outputs": [
        {
          "internalType": "address",
          "name": "",
          "type": "address"
        }
      ],
      "stateMutability": "view",
      "type": "function"
    },
    {
      "inputs": [
        {
          "internalType": "address",
          "name": "token",
          "type": "address"
        },
        {
          "internalType": "uint256",
          "name": "amount",
          "type": "uint256"
        }
      ],
      "name": "emergencyRecover",
      "outputs": [],
      "stateMutability": "nonpayable",
      "type": "function"
    },
    {
      "inputs": [
        {
          "internalType": "address",
          "name": "inputToken",
          "type": "address"
        },
        {
          "internalType": "uint256",
          "name": "inputAmount",
          "type": "uint256"
        }
      ],
      "name": "getExpectedBzzOutput",
      "outputs": [
        {
          "internalType": "uint256",
          "name": "expectedBzz",
          "type": "uint256"
        }
      ],
      "stateMutability": "view",
      "type": "function"
    },
    {
      "inputs": [],
      "name": "owner",
      "outputs": [
        {
          "internalType": "address",
          "name": "",
          "type": "address"
        }
      ],
      "stateMutability": "view",
      "type": "function"
    },
    {
      "inputs": [],
      "name": "renounceOwnership",
      "outputs": [],
      "stateMutability": "nonpayable",
      "type": "function"
    },
    {
      "inputs": [],
      "name": "sushiRouter",
      "outputs": [
        {
          "internalType": "contract ISushiSwapV2Router",
          "name": "",
          "type": "address"
        }
      ],
      "stateMutability": "view",
      "type": "function"
    },
    {
      "inputs": [
        {
          "internalType": "address",
          "name": "inputToken",
          "type": "address"
        },
        {
          "internalType": "uint256",
          "name": "inputAmount",
          "type": "uint256"
        },
        {
          "internalType": "uint256",
          "name": "exactBzzNeeded",
          "type": "uint256"
        },
        {
          "internalType": "uint256",
          "name": "minBzzReceived",
          "type": "uint256"
        },
        {
          "internalType": "address",
          "name": "owner",
          "type": "address"
        },
        {
          "internalType": "address",
          "name": "nodeAddress",
          "type": "address"
        },
        {
          "internalType": "uint256",
          "name": "initialPaymentPerChunk",
          "type": "uint256"
        },
        {
          "internalType": "uint8",
          "name": "depth",
          "type": "uint8"
        },
        {
          "internalType": "uint8",
          "name": "bucketDepth",
          "type": "uint8"
        },
        {
          "internalType": "bytes32",
          "name": "nonce",
          "type": "bytes32"
        },
        {
          "internalType": "bool",
          "name": "immutableFlag",
          "type": "bool"
        }
      ],
      "name": "swapAndCreateBatch",
      "outputs": [],
      "stateMutability": "payable",
      "type": "function"
    },
    {
      "inputs": [
        {
          "internalType": "address",
          "name": "inputToken",
          "type": "address"
        },
        {
          "internalType": "uint256",
          "name": "inputAmount",
          "type": "uint256"
        },
        {
          "internalType": "uint256",
          "name": "exactBzzNeeded",
          "type": "uint256"
        },
        {
          "internalType": "uint256",
          "name": "minBzzReceived",
          "type": "uint256"
        },
        {
          "internalType": "bytes32",
          "name": "batchId",
          "type": "bytes32"
        },
        {
          "internalType": "uint256",
          "name": "topupAmountPerChunk",
          "type": "uint256"
        }
      ],
      "name": "swapAndTopUpBatch",
      "outputs": [],
      "stateMutability": "payable",
      "type": "function"
    },
    {
      "inputs": [
        {
          "internalType": "address",
          "name": "newOwner",
          "type": "address"
        }
      ],
      "name": "transferOwnership",
      "outputs": [],
      "stateMutability": "nonpayable",
      "type": "function"
    },
    {
      "inputs": [
        {
          "internalType": "address",
          "name": "_sushiRouter",
          "type": "address"
        },
        {
          "internalType": "address",
          "name": "_batchRegistry",
          "type": "address"
        },
        {
          "internalType": "address",
          "name": "_bzzToken",
          "type": "address"
        },
        {
          "internalType": "address",
          "name": "_defaultInputToken",
          "type": "address"
        },
        {
          "internalType": "address",
          "name": "_defaultPool",
          "type": "address"
        },
        {
          "internalType": "address",
          "name": "_wxdaiToken",
          "type": "address"
        }
      ],
      "name": "updateConfig",
      "outputs": [],
      "stateMutability": "nonpayable",
      "type": "function"
    },
    {
      "inputs": [],
      "name": "wxdaiToken",
      "outputs": [
        {
          "internalType": "address",
          "name": "",
          "type": "address"
        }
      ],
      "stateMutability": "view",
      "type": "function"
    }
  ],
  "transactionHash": "0x40660a7ae4eb9e10a3b95e6ce090c77f5dd327a950034ec30b2aad393eef9cd4",
  "args": [
    "0x1b02dA8Cb0d097eB8D57A175b88c7D8b47997506",
    "0x2f934E07b40ce9cE97e8fb06B2BCE00cd72fEc92",
    "0xdBF3Ea6F5beE45c02255B2c26a16F300502F68da",
    "0xDDAfbb505ad214D7b80b1f830fcCc89B60fb7A83",
    "0x6f30b7cf40cb423c1d23478a9855701ecf43931e",
    "0xe91D153E0b41518A2Ce8Dd3D7944Fa863463a97d"
  ],
  "numDeployments": 2,
  "solcInputHash": "ef43c6a75f566f59805490bc3feb4cee",
  "bytecode": "0x6080346200015657601f620012a338819003918201601f19168301916001600160401b038311848410176200015b5780849260c09460405283398101031262000156576200004d8162000171565b6200005b6020830162000171565b916200006a6040820162000171565b90620000796060820162000171565b916200009660a06200008e6080850162000171565b930162000171565b9133156200013d576000549560018060a01b03948580948180948160018060a01b03199b8d8d339116176000556040519d823391167f8be0079c531659141344cd1fd0a4f28419497f9722a3daafe3b4186f6b6457e0600080a360018055168b6002541617600255168960035416176003551687600454161760045516856005541617600555168360065416176006551690600754161760075561111c9081620001878239f35b604051631e4fbdf760e01b815260006004820152602490fd5b600080fd5b634e487b7160e01b600052604160045260246000fd5b51906001600160a01b0382168203620001565756fe6080604081815260048036101561001557600080fd5b600092833560e01c9081633cc74225146108db57508063420fc4db146108b45780635e76e6a5146108845780636d13582c1461085b578063715018a6146108015780638155db7b146107d857806387a94485146106da5780638da5cb5b146106b25780639639011e146106735780639e69db561461064a578063aa40b77b14610621578063ba04e5d4146103fd578063bfec3c271461014b5763f2fde38b146100bd57600080fd5b34610147576020366003190112610147576100d6610900565b906100df610db4565b6001600160a01b03918216928315610131575050600054826001600160601b0360a01b821617600055167f8be0079c531659141344cd1fd0a4f28419497f9722a3daafe3b4186f6b6457e0600080a380f35b51631e4fbdf760e01b8152908101849052602490fd5b8280fd5b5061016036600319011261014757610161610900565b9060443590602435610171610916565b9161017a61092c565b9360e4359160ff83168093036103f857610104359560ff87168097036103f8578990610124359761014435908115158092036103f4576101b8610e23565b6101c3861515610b7b565b6001600160a01b03968b881689816103c85750506101e2341515610c83565b6101ed348a14610cc0565b8760075416803b156103c4578587918f5192838092630d0e30db60e41b825234905af19081156103ba5786916103a2575b5050610234348960075416905b60643591610e9f565b99610241888c1015610d16565b610254888a8954168b6003541690610f97565b886003541694853b1561039e5787958f958e8c9660e496888c9a968b97519c8d9b8c9a6317f8c86b60e11b8c5216908a015216602488015260c43560448801526064870152608486015260a485015260c48401525af1801561039457610376575b5050907fe061d26f9b27e3e6afd1edf0481b3b0599e32ebd15282cab73628c029a8b3b669561035793926102e98388610a63565b809481610361575b505050600354895190602082019283526001600160601b03199060601b168a820152603481526103208161096c565b51902097519485943398869192608093969594919660a084019760018060a01b031684526020840152604083015260608201520152565b0390a36001805580f35b61036e9254163390610de0565b3883816102f1565b6103839094939294610942565b61039057909188386102b5565b8880fd5b8a513d84823e3d90fd5b8680fd5b6103ab90610942565b6103b657843861021e565b8480fd5b8e513d88823e3d90fd5b8580fd5b6103ea916103d7821515610bd1565b6103e13415610c29565b30903390610e46565b6102348c8a61022b565b8380fd5b600080fd5b509060c036600319011261014757610413610900565b90602435926044359360843594610428610e23565b610433811515610b7b565b85156105eb576001600160a01b039085821683816105d2575050610458341515610c83565b610463348414610cc0565b816007541688813b156105cf578651630d0e30db60e41b81529182908790829034905af180156105c5576105b2575b506104a63483600754169060643591610e9f565b936104b382861015610d16565b6104c68284835416856003541690610f97565b888360035416803b156105ae5781809160448c8b519485938492631549361960e01b84528984015260a43560248401525af180156105a45761058a575b5050907f2ce8bdeab857d593e3b5a3d18fd2f3a03a92bcf6f49f6312f853c39071d834289561035793926105378388610a63565b809481610575575b505050519485943398869192608093969594919660a084019760018060a01b031684526020840152604083015260608201520152565b6105829254163390610de0565b38838161053f565b6105979094939294610942565b6103905790918838610503565b88513d84823e3d90fd5b5080fd5b6105be90989198610942565b9638610492565b86513d8b823e3d90fd5b80fd5b6105e1916103d7821515610bd1565b6104a6868461022b565b835162461bcd60e51b8152602081850152601060248201526f125b9d985b1a590818985d18da08125160821b6044820152606490fd5b5050346105ae57816003193601126105ae5760035490516001600160a01b039091168152602090f35b5050346105ae57816003193601126105ae5760075490516001600160a01b039091168152602090f35b5050346105ae573660031901126105cf576106af61068f610900565b610697610db4565b8254602435916001600160a01b039182169116610de0565b80f35b5050346105ae57816003193601126105ae57905490516001600160a01b039091168152602090f35b50346101475760c0366003190112610147576106f4610900565b6001600160a01b03602435818116939192908490036103c45760443583811680910361039e57606435908482168092036107d4577f37173c13479eb3123ade02b07afd4fc403169e7cefe7021c953b0978d23693689660c096610755610916565b96808061076061092c565b97610769610db4565b16986001600160601b0360a01b988a8a6002541617600255848a6003541617600355868a825416179055868960055416176005551695868860065416176006551680966007541617600755815196875260208701528501526060840152608083015260a0820152a180f35b8780fd5b5050346105ae57816003193601126105ae5760055490516001600160a01b039091168152602090f35b83346105cf57806003193601126105cf5761081a610db4565b80546001600160a01b03198116825581906001600160a01b03167f8be0079c531659141344cd1fd0a4f28419497f9722a3daafe3b4186f6b6457e08280a380f35b5050346105ae57816003193601126105ae5760025490516001600160a01b039091168152602090f35b5050346105ae57806003193601126105ae576020906108ad6108a4610900565b60243590610ab0565b9051908152f35b50346101475782600319360112610147575490516001600160a01b03909116815260209150f35b8490346105ae57816003193601126105ae576006546001600160a01b03168152602090f35b600435906001600160a01b03821682036103f857565b608435906001600160a01b03821682036103f857565b60a435906001600160a01b03821682036103f857565b67ffffffffffffffff811161095657604052565b634e487b7160e01b600052604160045260246000fd5b6060810190811067ffffffffffffffff82111761095657604052565b90601f8019910116810190811067ffffffffffffffff82111761095657604052565b9060209081838203126103f857825167ffffffffffffffff938482116103f8570181601f820112156103f8578051938411610956578360051b90604051946109f485840187610988565b855283808601928201019283116103f8578301905b828210610a17575050505090565b81518152908301908301610a09565b90815180825260208080930193019160005b828110610a46575050505090565b83516001600160a01b031685529381019392810192600101610a38565b91908203918211610a7057565b634e487b7160e01b600052601160045260246000fd5b8051821015610a9a5760209160051b010190565b634e487b7160e01b600052603260045260246000fd5b6001600160a01b0390808216610b76575080600754165b816004541682821614610b715790610b1392610ae4600093610d6e565b91600254169060405180958194829363d06ca61f60e01b84526004840152604060248401526044830190610a26565b03915afa908115610b6557600091610b42575b5080516000198101908111610a7057610b3e91610a86565b5190565b610b5f91503d806000833e610b578183610988565b8101906109aa565b38610b26565b6040513d6000823e3d90fd5b505090565b610ac7565b15610b8257565b60405162461bcd60e51b815260206004820152602160248201527f425a5a206e6565646564206d7573742062652067726561746572207468616e206044820152600360fc1b6064820152608490fd5b15610bd857565b60405162461bcd60e51b815260206004820152602360248201527f496e70757420616d6f756e74206d75737420626520677265617465722074686160448201526206e20360ec1b6064820152608490fd5b15610c3057565b60405162461bcd60e51b815260206004820152602560248201527f53686f756c64206e6f742073656e64207844414920666f7220455243323020746044820152646f6b656e7360d81b6064820152608490fd5b15610c8a57565b60405162461bcd60e51b815260206004820152600e60248201526d4d7573742073656e64207844414960901b6044820152606490fd5b15610cc757565b60405162461bcd60e51b815260206004820152602160248201527f496e70757420616d6f756e74206d757374206d61746368206d73672e76616c756044820152606560f81b6064820152608490fd5b15610d1d57565b60405162461bcd60e51b815260206004820152602360248201527f496e73756666696369656e7420425a5a2072656365697665642066726f6d207360448201526207761760ec1b6064820152608490fd5b60405190610d7b8261096c565b60028252602082016040368237825115610a9a576001600160a01b039182169052600454825191169060011015610a9a57604082015290565b6000546001600160a01b03163303610dc857565b60405163118cdaa760e01b8152336004820152602490fd5b60405163a9059cbb60e01b60208201526001600160a01b03929092166024830152604480830193909352918152610e2191610e1c606483610988565b61108a565b565b600260015414610e34576002600155565b604051633ee5aeb560e01b8152600490fd5b6040516323b872dd60e01b60208201526001600160a01b03928316602482015292909116604483015260648083019390935291815260a081019181831067ffffffffffffffff84111761095657610e219260405261108a565b6004546001600160a01b0380831695949392909182168614610f8f5782610ec8610ed492610d6e565b96836002541690610f97565b600254169061012c420191824211610a7057610f1660405196879586946338ed173960e01b86526004860152602485015260a0604485015260a4840190610a26565b9230606484015260848301528160008097819503925af1908115610f84578391610f6a575b508051600019810191908211610f5657610b3e929350610a86565b634e487b7160e01b84526011600452602484fd5b610f7e91503d8085833e610b578183610988565b38610f3b565b6040513d85823e3d90fd5b509093505050565b60405163095ea7b360e01b602082018181526001600160a01b038516602484015260448084019690965294825294939092610fd3606485610988565b60206000809386519082875af182513d82611065575b505015610ff9575b505050509050565b60405160208101969096526001600160a01b0316602486015260448086018290528552608085019067ffffffffffffffff82118683101761105157506110479394610e1c916040528261108a565b8038808080610ff1565b634e487b7160e01b81526041600452602490fd5b90915061108257506001600160a01b0383163b15155b3880610fe9565b60011461107b565b906000602091828151910182855af115610b65576000513d6110dd57506001600160a01b0381163b155b6110bb5750565b604051635274afe760e01b81526001600160a01b039091166004820152602490fd5b600114156110b456fea2646970667358221220f0e4f040963bca00ae6ee6b27259a95e42baec22544723c9ba2dfd0d6244bd5764736f6c63430008170033",
  "devdoc": {
    "errors": {
      "OwnableInvalidOwner(address)": [
        {
          "details": "The owner is not a valid owner account. (eg. `address(0)`)"
        }
      ],
      "OwnableUnauthorizedAccount(address)": [
        {
          "details": "The caller account is not authorized to perform an operation."
        }
      ],
      "ReentrancyGuardReentrantCall()": [
        {
          "details": "Unauthorized reentrant call."
        }
      ],
      "SafeERC20FailedOperation(address)": [
        {
          "details": "An operation with an ERC-20 token failed."
        }
      ]
    },
    "kind": "dev",
    "methods": {
      "emergencyRecover(address,uint256)": {
        "details": "Emergency function to recover stuck tokens (owner only)"
      },
      "getExpectedBzzOutput(address,uint256)": {
        "details": "Get expected BZZ output for input amount"
      },
      "owner()": {
        "details": "Returns the address of the current owner."
      },
      "renounceOwnership()": {
        "details": "Leaves the contract without owner. It will not be possible to call `onlyOwner` functions. Can only be called by the current owner. NOTE: Renouncing ownership will leave the contract without an owner, thereby disabling any functionality that is only available to the owner."
      },
      "swapAndCreateBatch(address,uint256,uint256,uint256,address,address,uint256,uint8,uint8,bytes32,bool)": {
        "details": "Swap input token to BZZ and create new batch"
      },
      "swapAndTopUpBatch(address,uint256,uint256,uint256,bytes32,uint256)": {
        "details": "Swap input token to BZZ and top up existing batch"
      },
      "transferOwnership(address)": {
        "details": "Transfers ownership of the contract to a new account (`newOwner`). Can only be called by the current owner."
      },
      "updateConfig(address,address,address,address,address,address)": {
        "details": "Update contract configuration (owner only)"
      }
    },
    "version": 1
  },
  "userdoc": {
    "kind": "user",
    "methods": {},
    "version": 1
  },
  "storageLayout": {
    "storage": [
      {
        "astId": 8,
        "contract": "contracts/SwarmBatchSwapper.sol:SwarmBatchSwapper",
        "label": "_owner",
        "offset": 0,
        "slot": "0",
        "type": "t_address"
      },
      {
        "astId": 820,
        "contract": "contracts/SwarmBatchSwapper.sol:SwarmBatchSwapper",
        "label": "_status",
        "offset": 0,
        "slot": "1",
        "type": "t_uint256"
      },
      {
        "astId": 995,
        "contract": "contracts/SwarmBatchSwapper.sol:SwarmBatchSwapper",
        "label": "sushiRouter",
        "offset": 0,
        "slot": "2",
        "type": "t_contract(ISushiSwapV2Router)925"
      },
      {
        "astId": 998,
        "contract": "contracts/SwarmBatchSwapper.sol:SwarmBatchSwapper",
        "label": "batchRegistry",
        "offset": 0,
        "slot": "3",
        "type": "t_contract(IBatchRegistry)950"
      },
      {
        "astId": 1000,
        "contract": "contracts/SwarmBatchSwapper.sol:SwarmBatchSwapper",
        "label": "bzzToken",
        "offset": 0,
        "slot": "4",
        "type": "t_address"
      },
      {
        "astId": 1002,
        "contract": "contracts/SwarmBatchSwapper.sol:SwarmBatchSwapper",
        "label": "defaultInputToken",
        "offset": 0,
        "slot": "5",
        "type": "t_address"
      },
      {
        "astId": 1004,
        "contract": "contracts/SwarmBatchSwapper.sol:SwarmBatchSwapper",
        "label": "defaultPool",
        "offset": 0,
        "slot": "6",
        "type": "t_address"
      },
      {
        "astId": 1006,
        "contract": "contracts/SwarmBatchSwapper.sol:SwarmBatchSwapper",
        "label": "wxdaiToken",
        "offset": 0,
        "slot": "7",
        "type": "t_address"
      }
    ],
    "types": {
      "t_address": {
        "encoding": "inplace",
        "label": "address",
        "numberOfBytes": "20"
      },
      "t_contract(IBatchRegistry)950": {
        "encoding": "inplace",
        "label": "contract IBatchRegistry",
        "numberOfBytes": "20"
      },
      "t_contract(ISushiSwapV2Router)925": {
        "encoding": "inplace",
        "label": "contract ISushiSwapV2Router",
        "numberOfBytes": "20"
      },
      "t_uint256": {
        "encoding": "inplace",
        "label": "uint256",
        "numberOfBytes": "32"
      }
    }
  }
}